{
  "contractName": "Election",
  "abi": [
    {
      "inputs": [
        {
          "internalType": "contract ElectionToken",
          "name": "_tokenContract",
          "type": "address"
        }
      ],
      "payable": false,
      "stateMutability": "nonpayable",
      "type": "constructor"
    },
    {
      "anonymous": false,
      "inputs": [
        {
          "indexed": true,
          "internalType": "uint256",
          "name": "_candidateId",
          "type": "uint256"
        }
      ],
      "name": "votedEvent",
      "type": "event"
    },
    {
      "constant": true,
      "inputs": [],
      "name": "accountesCount",
      "outputs": [
        {
          "internalType": "uint256",
          "name": "",
          "type": "uint256"
        }
      ],
      "payable": false,
      "stateMutability": "view",
      "type": "function"
    },
    {
      "constant": true,
      "inputs": [
        {
          "internalType": "address",
          "name": "",
          "type": "address"
        }
      ],
      "name": "bookOfVoters",
      "outputs": [
        {
          "internalType": "bool",
          "name": "",
          "type": "bool"
        }
      ],
      "payable": false,
      "stateMutability": "view",
      "type": "function"
    },
    {
      "constant": true,
      "inputs": [
        {
          "internalType": "uint256",
          "name": "",
          "type": "uint256"
        }
      ],
      "name": "candidates",
      "outputs": [
        {
          "internalType": "uint256",
          "name": "id",
          "type": "uint256"
        },
        {
          "internalType": "string",
          "name": "name",
          "type": "string"
        },
        {
          "internalType": "uint256",
          "name": "voteCount",
          "type": "uint256"
        }
      ],
      "payable": false,
      "stateMutability": "view",
      "type": "function"
    },
    {
      "constant": true,
      "inputs": [],
      "name": "candidatesCount",
      "outputs": [
        {
          "internalType": "uint256",
          "name": "",
          "type": "uint256"
        }
      ],
      "payable": false,
      "stateMutability": "view",
      "type": "function"
    },
    {
      "constant": true,
      "inputs": [],
      "name": "durationTime",
      "outputs": [
        {
          "internalType": "uint256",
          "name": "",
          "type": "uint256"
        }
      ],
      "payable": false,
      "stateMutability": "view",
      "type": "function"
    },
    {
      "constant": true,
      "inputs": [],
      "name": "finishTime",
      "outputs": [
        {
          "internalType": "uint256",
          "name": "",
          "type": "uint256"
        }
      ],
      "payable": false,
      "stateMutability": "view",
      "type": "function"
    },
    {
      "constant": true,
      "inputs": [],
      "name": "owner",
      "outputs": [
        {
          "internalType": "address",
          "name": "",
          "type": "address"
        }
      ],
      "payable": false,
      "stateMutability": "view",
      "type": "function"
    },
    {
      "constant": true,
      "inputs": [],
      "name": "settingTime",
      "outputs": [
        {
          "internalType": "bool",
          "name": "",
          "type": "bool"
        }
      ],
      "payable": false,
      "stateMutability": "view",
      "type": "function"
    },
    {
      "constant": true,
      "inputs": [],
      "name": "startTime",
      "outputs": [
        {
          "internalType": "uint256",
          "name": "",
          "type": "uint256"
        }
      ],
      "payable": false,
      "stateMutability": "view",
      "type": "function"
    },
    {
      "constant": true,
      "inputs": [],
      "name": "tokenContract",
      "outputs": [
        {
          "internalType": "contract ElectionToken",
          "name": "",
          "type": "address"
        }
      ],
      "payable": false,
      "stateMutability": "view",
      "type": "function"
    },
    {
      "constant": true,
      "inputs": [
        {
          "internalType": "address",
          "name": "",
          "type": "address"
        }
      ],
      "name": "voters",
      "outputs": [
        {
          "internalType": "bool",
          "name": "",
          "type": "bool"
        }
      ],
      "payable": false,
      "stateMutability": "view",
      "type": "function"
    },
    {
      "constant": true,
      "inputs": [
        {
          "internalType": "uint256",
          "name": "",
          "type": "uint256"
        }
      ],
      "name": "votersAddres",
      "outputs": [
        {
          "internalType": "address",
          "name": "",
          "type": "address"
        }
      ],
      "payable": false,
      "stateMutability": "view",
      "type": "function"
    },
    {
      "constant": true,
      "inputs": [],
      "name": "votersCount",
      "outputs": [
        {
          "internalType": "uint256",
          "name": "",
          "type": "uint256"
        }
      ],
      "payable": false,
      "stateMutability": "view",
      "type": "function"
    },
    {
      "constant": false,
      "inputs": [
        {
          "internalType": "string",
          "name": "_name",
          "type": "string"
        }
      ],
      "name": "addCandidate",
      "outputs": [],
      "payable": false,
      "stateMutability": "nonpayable",
      "type": "function"
    },
    {
      "constant": false,
      "inputs": [
        {
          "internalType": "address",
          "name": "_voterAddres",
          "type": "address"
        }
      ],
      "name": "BookOfVotes",
      "outputs": [],
      "payable": false,
      "stateMutability": "nonpayable",
      "type": "function"
    },
    {
      "constant": false,
      "inputs": [
        {
          "internalType": "uint256",
          "name": "_startTime",
          "type": "uint256"
        },
        {
          "internalType": "uint256",
          "name": "_finishTime",
          "type": "uint256"
        },
        {
          "internalType": "uint256",
          "name": "_durationTime",
          "type": "uint256"
        }
      ],
      "name": "settingTimes",
      "outputs": [],
      "payable": false,
      "stateMutability": "nonpayable",
      "type": "function"
    },
    {
      "constant": false,
      "inputs": [
        {
          "internalType": "uint256",
          "name": "_candidateId",
          "type": "uint256"
        }
      ],
      "name": "vote",
      "outputs": [],
      "payable": false,
      "stateMutability": "nonpayable",
      "type": "function"
    }
  ],
  "bytecode": "0x60806040526000600760146101000a81548160ff0219169083151502179055503480156200002c57600080fd5b506040516200119438038062001194833981810160405260208110156200005257600080fd5b810190808051906020019092919050505033600760006101000a81548173ffffffffffffffffffffffffffffffffffffffff021916908373ffffffffffffffffffffffffffffffffffffffff160217905550806000806101000a81548173ffffffffffffffffffffffffffffffffffffffff021916908373ffffffffffffffffffffffffffffffffffffffff1602179055506200012a6040518060400160405280600481526020017f42696269000000000000000000000000000000000000000000000000000000008152506200017760201b60201c565b620001706040518060400160405280600581526020017f47616e747a0000000000000000000000000000000000000000000000000000008152506200017760201b60201c565b5062000368565b600760009054906101000a900473ffffffffffffffffffffffffffffffffffffffff1673ffffffffffffffffffffffffffffffffffffffff163373ffffffffffffffffffffffffffffffffffffffff16146200023b576040517f08c379a000000000000000000000000000000000000000000000000000000000815260040180806020018281038252600d8152602001807f594f55204e4f54204f574e45520000000000000000000000000000000000000081525060200191505060405180910390fd5b600360008154809291906001019190505550604051806060016040528060035481526020018281526020016000815250600260006003548152602001908152602001600020600082015181600001556020820151816001019080519060200190620002a8929190620002b9565b506040820151816002015590505050565b828054600181600116156101000203166002900490600052602060002090601f016020900481019282601f10620002fc57805160ff19168380011785556200032d565b828001600101855582156200032d579182015b828111156200032c5782518255916020019190600101906200030f565b5b5090506200033c919062000340565b5090565b6200036591905b808211156200036157600081600090555060010162000347565b5090565b90565b610e1c80620003786000396000f3fe608060405234801561001057600080fd5b506004361061010b5760003560e01c80635958611e116100a25780638da5cb5b116100715780638da5cb5b1461049e57806398c07938146104e8578063a3ec138d14610506578063c55ae4ac14610562578063f8b75fb5146105a65761010b565b80635958611e1461042257806365c8c25b1461044057806378e979251461045e578063876e2cee1461047c5761010b565b80633477ee2e116100de5780633477ee2e14610226578063462e91ec146102db57806352d24bbd1461039657806355a373d6146103d85761010b565b80630121b93f14610110578063096df5521461013e5780632d35a8a2146101ac5780632f5da8a7146101ca575b600080fd5b61013c6004803603602081101561012657600080fd5b81019080803590602001909291905050506105c4565b005b61016a6004803603602081101561015457600080fd5b810190808035906020019092919050505061082d565b604051808273ffffffffffffffffffffffffffffffffffffffff1673ffffffffffffffffffffffffffffffffffffffff16815260200191505060405180910390f35b6101b4610869565b6040518082815260200191505060405180910390f35b61020c600480360360208110156101e057600080fd5b81019080803573ffffffffffffffffffffffffffffffffffffffff16906020019092919050505061086f565b604051808215151515815260200191505060405180910390f35b6102526004803603602081101561023c57600080fd5b810190808035906020019092919050505061088f565b6040518084815260200180602001838152602001828103825284818151815260200191508051906020019080838360005b8381101561029e578082015181840152602081019050610283565b50505050905090810190601f1680156102cb5780820380516001836020036101000a031916815260200191505b5094505050505060405180910390f35b610394600480360360208110156102f157600080fd5b810190808035906020019064010000000081111561030e57600080fd5b82018360208201111561032057600080fd5b8035906020019184600183028401116401000000008311171561034257600080fd5b91908080601f016020809104026020016040519081016040528093929190818152602001838380828437600081840152601f19601f820116905080830192505050505050509192919290505050610951565b005b6103d6600480360360608110156103ac57600080fd5b81019080803590602001909291908035906020019092919080359060200190929190505050610a90565b005b6103e0610b88565b604051808273ffffffffffffffffffffffffffffffffffffffff1673ffffffffffffffffffffffffffffffffffffffff16815260200191505060405180910390f35b61042a610bad565b6040518082815260200191505060405180910390f35b610448610bb3565b6040518082815260200191505060405180910390f35b610466610bb9565b6040518082815260200191505060405180910390f35b610484610bbf565b604051808215151515815260200191505060405180910390f35b6104a6610bd2565b604051808273ffffffffffffffffffffffffffffffffffffffff1673ffffffffffffffffffffffffffffffffffffffff16815260200191505060405180910390f35b6104f0610bf8565b6040518082815260200191505060405180910390f35b6105486004803603602081101561051c57600080fd5b81019080803573ffffffffffffffffffffffffffffffffffffffff169060200190929190505050610bfe565b604051808215151515815260200191505060405180910390f35b6105a46004803603602081101561057857600080fd5b81019080803573ffffffffffffffffffffffffffffffffffffffff169060200190929190505050610c1e565b005b6105ae610d3c565b6040518082815260200191505060405180910390f35b60046000815480929190600101919050555060053390806001815401808255809150509060018203906000526020600020016000909192909190916101000a81548173ffffffffffffffffffffffffffffffffffffffff021916908373ffffffffffffffffffffffffffffffffffffffff16021790555050600160003373ffffffffffffffffffffffffffffffffffffffff1673ffffffffffffffffffffffffffffffffffffffff16815260200190815260200160002060009054906101000a900460ff16156106fc576040517f08c379a00000000000000000000000000000000000000000000000000000000081526004018080602001828103825260058152602001807f4552524f5200000000000000000000000000000000000000000000000000000081525060200191505060405180910390fd5b60008111801561070e57506003548111155b610780576040517f08c379a00000000000000000000000000000000000000000000000000000000081526004018080602001828103825260058152602001807f4552524f5200000000000000000000000000000000000000000000000000000081525060200191505060405180910390fd5b60018060003373ffffffffffffffffffffffffffffffffffffffff1673ffffffffffffffffffffffffffffffffffffffff16815260200190815260200160002060006101000a81548160ff0219169083151502179055506002600082815260200190815260200160002060020160008154809291906001019190505550807ffff3c900d938d21d0990d786e819f29b8d05c1ef587b462b939609625b684b1660405160405180910390a250565b6005818154811061083a57fe5b906000526020600020016000915054906101000a900473ffffffffffffffffffffffffffffffffffffffff1681565b60035481565b600b6020528060005260406000206000915054906101000a900460ff1681565b6002602052806000526040600020600091509050806000015490806001018054600181600116156101000203166002900480601f0160208091040260200160405190810160405280929190818152602001828054600181600116156101000203166002900480156109415780601f1061091657610100808354040283529160200191610941565b820191906000526020600020905b81548152906001019060200180831161092457829003601f168201915b5050505050908060020154905083565b600760009054906101000a900473ffffffffffffffffffffffffffffffffffffffff1673ffffffffffffffffffffffffffffffffffffffff163373ffffffffffffffffffffffffffffffffffffffff1614610a14576040517f08c379a000000000000000000000000000000000000000000000000000000000815260040180806020018281038252600d8152602001807f594f55204e4f54204f574e45520000000000000000000000000000000000000081525060200191505060405180910390fd5b600360008154809291906001019190505550604051806060016040528060035481526020018281526020016000815250600260006003548152602001908152602001600020600082015181600001556020820151816001019080519060200190610a7f929190610d42565b506040820151816002015590505050565b600760009054906101000a900473ffffffffffffffffffffffffffffffffffffffff1673ffffffffffffffffffffffffffffffffffffffff163373ffffffffffffffffffffffffffffffffffffffff1614610b53576040517f08c379a000000000000000000000000000000000000000000000000000000000815260040180806020018281038252600d8152602001807f594f55204e4f54204f574e45520000000000000000000000000000000000000081525060200191505060405180910390fd5b6001600760146101000a81548160ff021916908315150217905550826008819055508160098190555080600a81905550505050565b6000809054906101000a900473ffffffffffffffffffffffffffffffffffffffff1681565b60095481565b60065481565b60085481565b600760149054906101000a900460ff1681565b600760009054906101000a900473ffffffffffffffffffffffffffffffffffffffff1681565b60045481565b60016020528060005260406000206000915054906101000a900460ff1681565b600760009054906101000a900473ffffffffffffffffffffffffffffffffffffffff1673ffffffffffffffffffffffffffffffffffffffff163373ffffffffffffffffffffffffffffffffffffffff1614610ce1576040517f08c379a000000000000000000000000000000000000000000000000000000000815260040180806020018281038252600d8152602001807f594f55204e4f54204f574e45520000000000000000000000000000000000000081525060200191505060405180910390fd5b6001600b60008373ffffffffffffffffffffffffffffffffffffffff1673ffffffffffffffffffffffffffffffffffffffff16815260200190815260200160002060006101000a81548160ff02191690831515021790555050565b600a5481565b828054600181600116156101000203166002900490600052602060002090601f016020900481019282601f10610d8357805160ff1916838001178555610db1565b82800160010185558215610db1579182015b82811115610db0578251825591602001919060010190610d95565b5b509050610dbe9190610dc2565b5090565b610de491905b80821115610de0576000816000905550600101610dc8565b5090565b9056fea265627a7a72315820de2e725c68c3892c96fe43462f497491303ea3d4436a5f48a35a90b73b6697f364736f6c63430005100032",
  "source": "pragma solidity >0.5.0;\r\n\r\nimport \"./ElectionToken.sol\";\r\n\r\ncontract Election {\r\n    ElectionToken public tokenContract;\r\n\r\n    // Model a Candidaten\r\n    struct Candidate {\r\n        uint256 id;\r\n        string name;\r\n        uint256 voteCount;\r\n    }\r\n\r\n    // Store accounts that have voted\r\n    mapping(address => bool) public voters;\r\n\r\n    // Read/write candidates\r\n    mapping(uint256 => Candidate) public candidates;\r\n\r\n    // Store Candidates Count\r\n    uint256 public candidatesCount;\r\n\r\n    uint256 public votersCount;\r\n    address[] public votersAddres;\r\n\r\n    // Store Accounts Coubt\r\n    uint256 public accountesCount;\r\n\r\n    address public owner;\r\n\r\n    bool public settingTime = false;\r\n    uint256 public startTime;\r\n    uint256 public finishTime;\r\n    uint256 public durationTime;\r\n\r\n    // Create Book Of Voters\r\n    mapping(address => bool) public bookOfVoters;\r\n\r\n    event votedEvent(uint256 indexed _candidateId);\r\n\r\n    constructor(ElectionToken _tokenContract) public {\r\n        owner = msg.sender;\r\n\r\n        tokenContract = _tokenContract;\r\n\r\n        addCandidate(\"Bibi\");\r\n        addCandidate(\"Gantz\");\r\n    }\r\n\r\n    modifier onlyOwner {\r\n        require(msg.sender == owner, \"YOU NOT OWNER\");\r\n        _;\r\n    }\r\n\r\n    function addCandidate(string memory _name) public onlyOwner {\r\n        candidatesCount++;\r\n        candidates[candidatesCount] = Candidate(candidatesCount, _name, 0);\r\n    }\r\n\r\n    function BookOfVotes(address _voterAddres) public onlyOwner {\r\n        bookOfVoters[_voterAddres] = true;\r\n    }\r\n\r\n    function settingTimes(\r\n        uint256 _startTime,\r\n        uint256 _finishTime,\r\n        uint256 _durationTime\r\n    ) public onlyOwner {\r\n        settingTime = true;\r\n        startTime = _startTime;\r\n        finishTime = _finishTime;\r\n        durationTime = _durationTime;\r\n    }\r\n\r\n    function vote(uint256 _candidateId) public {\r\n        votersCount++;\r\n        votersAddres.push(msg.sender);\r\n\r\n        // require that they haven't voted before\r\n        require((!voters[msg.sender]), \"ERROR\");\r\n\r\n        // require a valid candidate\r\n        require((_candidateId > 0 && _candidateId <= candidatesCount), \"ERROR\");\r\n\r\n        // record that voter has voted\r\n        voters[msg.sender] = true;\r\n\r\n        // update candidate vote Count\r\n        candidates[_candidateId].voteCount++;\r\n\r\n        // trigger voted event\r\n        emit votedEvent(_candidateId);\r\n    }\r\n\r\n}\r\n",
  "sourcePath": "C:\\Users\\יבגני\\Desktop\\לימודים\\שנה ג\\סמסטר א\\בלוקצ'יין\\final_project\\myElection\\contracts\\Election.sol",
  "compiler": {
    "name": "solc",
    "version": "0.5.16+commit.9c3226ce.Emscripten.clang"
  },
  "schemaVersion": "3.0.23",
  "updatedAt": "2020-03-25T09:09:55.145Z",
  "networkType": "ethereum",
  "devdoc": {
    "methods": {}
  },
  "userdoc": {
    "methods": {}
  }
}